{
	"data": {
		"bytecode": {
			"linkReferences": {},
			"object": "608060405234801561001057600080fd5b506104d3806100206000396000f3fe60806040526004361061001e5760003560e01c8063f6274f6614610023575b600080fd5b61003d600480360381019061003891906102a0565b610054565b60405161004b929190610301565b60405180910390f35b60008060006002905050935093915050565b600081359050610075816103ec565b92915050565b60008135905061008a81610403565b92915050565b60008135905061009f8161041a565b92915050565b6000813590506100b481610431565b92915050565b600061018082840312156100cd57600080fd5b6100d861018061032a565b905060006100e884828501610090565b60008301525060206100fc84828501610090565b60208301525060406101108482850161024c565b60408301525060606101248482850161024c565b60608301525060806101388482850161024c565b60808301525060a061014c84828501610066565b60a08301525060c061016084828501610066565b60c08301525060e061017484828501610066565b60e08301525061010061018984828501610066565b6101008301525061012061019f8482850161007b565b610120830152506101406101b584828501610276565b610140830152506101606101cb84828501610261565b6101608301525092915050565b6000608082840312156101ea57600080fd5b6101f4608061032a565b90506000610204848285016100a5565b60008301525060206102188482850161028b565b602083015250604061022c8482850161007b565b60408301525060606102408482850161007b565b60608301525092915050565b60008135905061025b81610441565b92915050565b60008135905061027081610458565b92915050565b6000813590506102858161046f565b92915050565b60008135905061029a81610486565b92915050565b600080600061022084860312156102b657600080fd5b60006102c4868287016100ba565b9350506101806102d6868287016101d8565b9250506102006102e88682870161024c565b9150509250925092565b6102fb81610385565b82525050565b600060408201905061031660008301856102f2565b61032360208301846102f2565b9392505050565b6000604051905081810181811067ffffffffffffffff8211171561034d57600080fd5b8060405250919050565b6000610362826103a1565b9050919050565b6000819050919050565b600061037e82610357565b9050919050565b60006fffffffffffffffffffffffffffffffff82169050919050565b600073ffffffffffffffffffffffffffffffffffffffff82169050919050565b6000819050919050565b600067ffffffffffffffff82169050919050565b600060ff82169050919050565b6103f581610357565b811461040057600080fd5b50565b61040c81610369565b811461041757600080fd5b50565b61042381610373565b811461042e57600080fd5b50565b6004811061043e57600080fd5b50565b61044a81610385565b811461045557600080fd5b50565b610461816103c1565b811461046c57600080fd5b50565b610478816103cb565b811461048357600080fd5b50565b61048f816103df565b811461049a57600080fd5b5056fea26469706673582212201b22143bd9383711288e31f7d76b35c02577a94d600f5760aeb267d6b323040264736f6c63430006050033",
			"opcodes": "PUSH1 0x80 PUSH1 0x40 MSTORE CALLVALUE DUP1 ISZERO PUSH2 0x10 JUMPI PUSH1 0x0 DUP1 REVERT JUMPDEST POP PUSH2 0x4D3 DUP1 PUSH2 0x20 PUSH1 0x0 CODECOPY PUSH1 0x0 RETURN INVALID PUSH1 0x80 PUSH1 0x40 MSTORE PUSH1 0x4 CALLDATASIZE LT PUSH2 0x1E JUMPI PUSH1 0x0 CALLDATALOAD PUSH1 0xE0 SHR DUP1 PUSH4 0xF6274F66 EQ PUSH2 0x23 JUMPI JUMPDEST PUSH1 0x0 DUP1 REVERT JUMPDEST PUSH2 0x3D PUSH1 0x4 DUP1 CALLDATASIZE SUB DUP2 ADD SWAP1 PUSH2 0x38 SWAP2 SWAP1 PUSH2 0x2A0 JUMP JUMPDEST PUSH2 0x54 JUMP JUMPDEST PUSH1 0x40 MLOAD PUSH2 0x4B SWAP3 SWAP2 SWAP1 PUSH2 0x301 JUMP JUMPDEST PUSH1 0x40 MLOAD DUP1 SWAP2 SUB SWAP1 RETURN JUMPDEST PUSH1 0x0 DUP1 PUSH1 0x0 PUSH1 0x2 SWAP1 POP POP SWAP4 POP SWAP4 SWAP2 POP POP JUMP JUMPDEST PUSH1 0x0 DUP2 CALLDATALOAD SWAP1 POP PUSH2 0x75 DUP2 PUSH2 0x3EC JUMP JUMPDEST SWAP3 SWAP2 POP POP JUMP JUMPDEST PUSH1 0x0 DUP2 CALLDATALOAD SWAP1 POP PUSH2 0x8A DUP2 PUSH2 0x403 JUMP JUMPDEST SWAP3 SWAP2 POP POP JUMP JUMPDEST PUSH1 0x0 DUP2 CALLDATALOAD SWAP1 POP PUSH2 0x9F DUP2 PUSH2 0x41A JUMP JUMPDEST SWAP3 SWAP2 POP POP JUMP JUMPDEST PUSH1 0x0 DUP2 CALLDATALOAD SWAP1 POP PUSH2 0xB4 DUP2 PUSH2 0x431 JUMP JUMPDEST SWAP3 SWAP2 POP POP JUMP JUMPDEST PUSH1 0x0 PUSH2 0x180 DUP3 DUP5 SUB SLT ISZERO PUSH2 0xCD JUMPI PUSH1 0x0 DUP1 REVERT JUMPDEST PUSH2 0xD8 PUSH2 0x180 PUSH2 0x32A JUMP JUMPDEST SWAP1 POP PUSH1 0x0 PUSH2 0xE8 DUP5 DUP3 DUP6 ADD PUSH2 0x90 JUMP JUMPDEST PUSH1 0x0 DUP4 ADD MSTORE POP PUSH1 0x20 PUSH2 0xFC DUP5 DUP3 DUP6 ADD PUSH2 0x90 JUMP JUMPDEST PUSH1 0x20 DUP4 ADD MSTORE POP PUSH1 0x40 PUSH2 0x110 DUP5 DUP3 DUP6 ADD PUSH2 0x24C JUMP JUMPDEST PUSH1 0x40 DUP4 ADD MSTORE POP PUSH1 0x60 PUSH2 0x124 DUP5 DUP3 DUP6 ADD PUSH2 0x24C JUMP JUMPDEST PUSH1 0x60 DUP4 ADD MSTORE POP PUSH1 0x80 PUSH2 0x138 DUP5 DUP3 DUP6 ADD PUSH2 0x24C JUMP JUMPDEST PUSH1 0x80 DUP4 ADD MSTORE POP PUSH1 0xA0 PUSH2 0x14C DUP5 DUP3 DUP6 ADD PUSH2 0x66 JUMP JUMPDEST PUSH1 0xA0 DUP4 ADD MSTORE POP PUSH1 0xC0 PUSH2 0x160 DUP5 DUP3 DUP6 ADD PUSH2 0x66 JUMP JUMPDEST PUSH1 0xC0 DUP4 ADD MSTORE POP PUSH1 0xE0 PUSH2 0x174 DUP5 DUP3 DUP6 ADD PUSH2 0x66 JUMP JUMPDEST PUSH1 0xE0 DUP4 ADD MSTORE POP PUSH2 0x100 PUSH2 0x189 DUP5 DUP3 DUP6 ADD PUSH2 0x66 JUMP JUMPDEST PUSH2 0x100 DUP4 ADD MSTORE POP PUSH2 0x120 PUSH2 0x19F DUP5 DUP3 DUP6 ADD PUSH2 0x7B JUMP JUMPDEST PUSH2 0x120 DUP4 ADD MSTORE POP PUSH2 0x140 PUSH2 0x1B5 DUP5 DUP3 DUP6 ADD PUSH2 0x276 JUMP JUMPDEST PUSH2 0x140 DUP4 ADD MSTORE POP PUSH2 0x160 PUSH2 0x1CB DUP5 DUP3 DUP6 ADD PUSH2 0x261 JUMP JUMPDEST PUSH2 0x160 DUP4 ADD MSTORE POP SWAP3 SWAP2 POP POP JUMP JUMPDEST PUSH1 0x0 PUSH1 0x80 DUP3 DUP5 SUB SLT ISZERO PUSH2 0x1EA JUMPI PUSH1 0x0 DUP1 REVERT JUMPDEST PUSH2 0x1F4 PUSH1 0x80 PUSH2 0x32A JUMP JUMPDEST SWAP1 POP PUSH1 0x0 PUSH2 0x204 DUP5 DUP3 DUP6 ADD PUSH2 0xA5 JUMP JUMPDEST PUSH1 0x0 DUP4 ADD MSTORE POP PUSH1 0x20 PUSH2 0x218 DUP5 DUP3 DUP6 ADD PUSH2 0x28B JUMP JUMPDEST PUSH1 0x20 DUP4 ADD MSTORE POP PUSH1 0x40 PUSH2 0x22C DUP5 DUP3 DUP6 ADD PUSH2 0x7B JUMP JUMPDEST PUSH1 0x40 DUP4 ADD MSTORE POP PUSH1 0x60 PUSH2 0x240 DUP5 DUP3 DUP6 ADD PUSH2 0x7B JUMP JUMPDEST PUSH1 0x60 DUP4 ADD MSTORE POP SWAP3 SWAP2 POP POP JUMP JUMPDEST PUSH1 0x0 DUP2 CALLDATALOAD SWAP1 POP PUSH2 0x25B DUP2 PUSH2 0x441 JUMP JUMPDEST SWAP3 SWAP2 POP POP JUMP JUMPDEST PUSH1 0x0 DUP2 CALLDATALOAD SWAP1 POP PUSH2 0x270 DUP2 PUSH2 0x458 JUMP JUMPDEST SWAP3 SWAP2 POP POP JUMP JUMPDEST PUSH1 0x0 DUP2 CALLDATALOAD SWAP1 POP PUSH2 0x285 DUP2 PUSH2 0x46F JUMP JUMPDEST SWAP3 SWAP2 POP POP JUMP JUMPDEST PUSH1 0x0 DUP2 CALLDATALOAD SWAP1 POP PUSH2 0x29A DUP2 PUSH2 0x486 JUMP JUMPDEST SWAP3 SWAP2 POP POP JUMP JUMPDEST PUSH1 0x0 DUP1 PUSH1 0x0 PUSH2 0x220 DUP5 DUP7 SUB SLT ISZERO PUSH2 0x2B6 JUMPI PUSH1 0x0 DUP1 REVERT JUMPDEST PUSH1 0x0 PUSH2 0x2C4 DUP7 DUP3 DUP8 ADD PUSH2 0xBA JUMP JUMPDEST SWAP4 POP POP PUSH2 0x180 PUSH2 0x2D6 DUP7 DUP3 DUP8 ADD PUSH2 0x1D8 JUMP JUMPDEST SWAP3 POP POP PUSH2 0x200 PUSH2 0x2E8 DUP7 DUP3 DUP8 ADD PUSH2 0x24C JUMP JUMPDEST SWAP2 POP POP SWAP3 POP SWAP3 POP SWAP3 JUMP JUMPDEST PUSH2 0x2FB DUP2 PUSH2 0x385 JUMP JUMPDEST DUP3 MSTORE POP POP JUMP JUMPDEST PUSH1 0x0 PUSH1 0x40 DUP3 ADD SWAP1 POP PUSH2 0x316 PUSH1 0x0 DUP4 ADD DUP6 PUSH2 0x2F2 JUMP JUMPDEST PUSH2 0x323 PUSH1 0x20 DUP4 ADD DUP5 PUSH2 0x2F2 JUMP JUMPDEST SWAP4 SWAP3 POP POP POP JUMP JUMPDEST PUSH1 0x0 PUSH1 0x40 MLOAD SWAP1 POP DUP2 DUP2 ADD DUP2 DUP2 LT PUSH8 0xFFFFFFFFFFFFFFFF DUP3 GT OR ISZERO PUSH2 0x34D JUMPI PUSH1 0x0 DUP1 REVERT JUMPDEST DUP1 PUSH1 0x40 MSTORE POP SWAP2 SWAP1 POP JUMP JUMPDEST PUSH1 0x0 PUSH2 0x362 DUP3 PUSH2 0x3A1 JUMP JUMPDEST SWAP1 POP SWAP2 SWAP1 POP JUMP JUMPDEST PUSH1 0x0 DUP2 SWAP1 POP SWAP2 SWAP1 POP JUMP JUMPDEST PUSH1 0x0 PUSH2 0x37E DUP3 PUSH2 0x357 JUMP JUMPDEST SWAP1 POP SWAP2 SWAP1 POP JUMP JUMPDEST PUSH1 0x0 PUSH16 0xFFFFFFFFFFFFFFFFFFFFFFFFFFFFFFFF DUP3 AND SWAP1 POP SWAP2 SWAP1 POP JUMP JUMPDEST PUSH1 0x0 PUSH20 0xFFFFFFFFFFFFFFFFFFFFFFFFFFFFFFFFFFFFFFFF DUP3 AND SWAP1 POP SWAP2 SWAP1 POP JUMP JUMPDEST PUSH1 0x0 DUP2 SWAP1 POP SWAP2 SWAP1 POP JUMP JUMPDEST PUSH1 0x0 PUSH8 0xFFFFFFFFFFFFFFFF DUP3 AND SWAP1 POP SWAP2 SWAP1 POP JUMP JUMPDEST PUSH1 0x0 PUSH1 0xFF DUP3 AND SWAP1 POP SWAP2 SWAP1 POP JUMP JUMPDEST PUSH2 0x3F5 DUP2 PUSH2 0x357 JUMP JUMPDEST DUP2 EQ PUSH2 0x400 JUMPI PUSH1 0x0 DUP1 REVERT JUMPDEST POP JUMP JUMPDEST PUSH2 0x40C DUP2 PUSH2 0x369 JUMP JUMPDEST DUP2 EQ PUSH2 0x417 JUMPI PUSH1 0x0 DUP1 REVERT JUMPDEST POP JUMP JUMPDEST PUSH2 0x423 DUP2 PUSH2 0x373 JUMP JUMPDEST DUP2 EQ PUSH2 0x42E JUMPI PUSH1 0x0 DUP1 REVERT JUMPDEST POP JUMP JUMPDEST PUSH1 0x4 DUP2 LT PUSH2 0x43E JUMPI PUSH1 0x0 DUP1 REVERT JUMPDEST POP JUMP JUMPDEST PUSH2 0x44A DUP2 PUSH2 0x385 JUMP JUMPDEST DUP2 EQ PUSH2 0x455 JUMPI PUSH1 0x0 DUP1 REVERT JUMPDEST POP JUMP JUMPDEST PUSH2 0x461 DUP2 PUSH2 0x3C1 JUMP JUMPDEST DUP2 EQ PUSH2 0x46C JUMPI PUSH1 0x0 DUP1 REVERT JUMPDEST POP JUMP JUMPDEST PUSH2 0x478 DUP2 PUSH2 0x3CB JUMP JUMPDEST DUP2 EQ PUSH2 0x483 JUMPI PUSH1 0x0 DUP1 REVERT JUMPDEST POP JUMP JUMPDEST PUSH2 0x48F DUP2 PUSH2 0x3DF JUMP JUMPDEST DUP2 EQ PUSH2 0x49A JUMPI PUSH1 0x0 DUP1 REVERT JUMPDEST POP JUMP INVALID LOG2 PUSH5 0x6970667358 0x22 SLT KECCAK256 SHL 0x22 EQ EXTCODESIZE 0xD9 CODESIZE CALLDATACOPY GT 0x28 DUP15 BALANCE 0xF7 0xD7 PUSH12 0x35C02577A94D600F5760AEB2 PUSH8 0xD6B323040264736F PUSH13 0x63430006050033000000000000 "
		},
		"gasEstimates": {
			"creation": {
				"codeDepositCost": "247000",
				"executionCost": "287",
				"totalCost": "247287"
			},
			"external": {
				"fillLimitOrder((address,address,uint128,uint128,uint128,address,address,address,address,bytes32,uint64,uint256),(uint8,uint8,bytes32,bytes32),uint128)": "infinite"
			}
		},
		"methodIdentifiers": {
			"fillLimitOrder((address,address,uint128,uint128,uint128,address,address,address,address,bytes32,uint64,uint256),(uint8,uint8,bytes32,bytes32),uint128)": "f6274f66"
		}
	},
	"abi": [
		{
			"inputs": [
				{
					"components": [
						{
							"internalType": "contract IERC20TokenV06",
							"name": "makerToken",
							"type": "address"
						},
						{
							"internalType": "contract IERC20TokenV06",
							"name": "takerToken",
							"type": "address"
						},
						{
							"internalType": "uint128",
							"name": "makerAmount",
							"type": "uint128"
						},
						{
							"internalType": "uint128",
							"name": "takerAmount",
							"type": "uint128"
						},
						{
							"internalType": "uint128",
							"name": "takerTokenFeeAmount",
							"type": "uint128"
						},
						{
							"internalType": "address",
							"name": "maker",
							"type": "address"
						},
						{
							"internalType": "address",
							"name": "taker",
							"type": "address"
						},
						{
							"internalType": "address",
							"name": "sender",
							"type": "address"
						},
						{
							"internalType": "address",
							"name": "feeRecipient",
							"type": "address"
						},
						{
							"internalType": "bytes32",
							"name": "pool",
							"type": "bytes32"
						},
						{
							"internalType": "uint64",
							"name": "expiry",
							"type": "uint64"
						},
						{
							"internalType": "uint256",
							"name": "salt",
							"type": "uint256"
						}
					],
					"internalType": "struct ZeroXSettlement.LimitOrder",
					"name": "order",
					"type": "tuple"
				},
				{
					"components": [
						{
							"internalType": "enum ZeroXSettlement.SignatureType",
							"name": "signatureType",
							"type": "uint8"
						},
						{
							"internalType": "uint8",
							"name": "v",
							"type": "uint8"
						},
						{
							"internalType": "bytes32",
							"name": "r",
							"type": "bytes32"
						},
						{
							"internalType": "bytes32",
							"name": "s",
							"type": "bytes32"
						}
					],
					"internalType": "struct ZeroXSettlement.Signature",
					"name": "signature",
					"type": "tuple"
				},
				{
					"internalType": "uint128",
					"name": "takerTokenFillAmount",
					"type": "uint128"
				}
			],
			"name": "fillLimitOrder",
			"outputs": [
				{
					"internalType": "uint128",
					"name": "takerTokenFilledAmount",
					"type": "uint128"
				},
				{
					"internalType": "uint128",
					"name": "makerTokenFilledAmount",
					"type": "uint128"
				}
			],
			"stateMutability": "payable",
			"type": "function"
		}
	]
}